:020000040800F2
:1080000000C00120218F01089DCA0008A1CA0008F4
:10801000A5CA0008A9CA0008ADCA000800000000EF
:1080200000000000000000000000000001E602085F
:10803000B1CA000800000000C1E6020831CB000808
:10804000718F0108718F0108718F0108718F01080C
:10805000718F0108718F0108718F0108718F0108FC
:10806000718F0108B5CA0008718F0108718F01086E
:10807000BDCA0008718F0108D1CA0008718F0108BC
:10808000718F0108718F0108718F0108718F0108CC
:10809000718F0108E5CA0008718F0108718F01080E
:1080A000718F0108718F0108718F0108718F0108AC
:1080B00009CB0008718F0108718F0108718F0108C9
:1080C000718F0108718F0108718F0108718F01088C
:1080D000718F0108718F0108718F0108718F01087C
:1080E000718F0108718F0108718F0108718F01086C
:1080F000718F0108718F0108718F0108718F01085C
:1081000000000000718F010800000000718F01085D
:10811000718F0108718F01081DCB0008F5CA000896
:10812000718F0108718F0108718F0108718F01082B
:10813000718F01080000000000000000718F01082D
:10814000718F0108718F010800000000000000001D
:10815000000000000000000000000000000000001F
:10816000000000000000000000000000718F010806
:10817000718F0108718F0108718F0108718F0108DB
:10818000718F0108718F01080000000000000000DD
:108190000000000000000000718F0108718F0108CD
:1081A0000000000000000000718F0108718F0108BD
:1081B000718F0108718F0108718F0108718F01089B
:1081C000718F0108718F0108718F0108718F01088B
:0881D000718F0108718F010895
:1081E00010B5054C237833B9044B13B10448AFF3F1
:1081F00000800123237010BDA80C002000000000A7
:108200002CFE020808B5034B1BB103490348AFF32A
:10821000008008BD00000000AC0C00202CFE02080D
:10822000A3F5803A704700BF174B002B08BF134BD4
:108230009D46FFF7F5FF00218B460F461348144A71
:10824000121A02F0E1F80E4B002B00D098470D4BAC
:10825000002B00D098470020002104000D000D489D
:10826000002802D00C4802F091F902F0A9F8200091
:10827000290002F087FC02F093F800BF000008001C
:10828000000000000000000000000000A80C00201A
:10829000982C01208DA5000899A500084417030813
:1082A00008010020A80C0020A80C0020982C012018
:1082B00070B54FF0FF0C4CF4E06C1CEA11541DBF7C
:1082C0001CEA135594EA0C0F95EA0C0F00F0DEF847
:1082D0002C4481EA030621EA4C5123EA4C5350EA2C
:1082E000013518BF52EA033541F4801143F480137D
:1082F00038D0A0FB02CE4FF00005E1FB02E506F00E
:108300000042E0FB03E54FF00006E1FB03569CF062
:10831000000F18BF4EF0010EA4F1FF04B6F5007F68
:1083200064F5407404D25FEA4E0E6D4146EB0606DA
:1083300042EAC62141EA55514FEAC52040EA5E5063
:108340004FEACE2EB4F1FD0C88BFBCF5E06F1ED80D
:10835000BEF1004F08BF5FEA500E50F1000041EB44
:10836000045170BD06F0004646EA010140EA0200F1
:1083700081EA0301B4EB5C04C2BFD4EB0C0541EA13
:10838000045170BD41F480114FF0000E013C00F328
:10839000AB8014F1360FDEBF002001F0004170BD4C
:1083A000C4F10004203C35DA0C341BDC04F1140465
:1083B000C4F1200500FA05F320FA04F001FA05F2F1
:1083C00040EA020001F0004221F0004110EBD370BE
:1083D00021FA04F642EB06015EEA430E08BF20EAEA
:1083E000D37070BDC4F10C04C4F1200500FA04F38D
:1083F00020FA05F001FA04F240EA020001F000411F
:1084000010EBD37041F100015EEA430E08BF20EA91
:10841000D37070BDC4F1200500FA05F24EEA020ED9
:1084200020FA04F301FA05F243EA020321FA04F008
:1084300001F0004121FA04F220EA020000EBD370BF
:108440005EEA430E08BF20EAD37070BD94F0000FBF
:108450000FD101F00046400041EB010111F4801FF3
:1084600008BF013CF7D041EA060195F0000F18BFA4
:10847000704703F00046520043EB030313F4801FE0
:1084800008BF013DF7D043EA0603704794EA0C0F9A
:108490000CEA135518BF95EA0C0F0CD050EA4106B0
:1084A00018BF52EA4306D1D181EA030101F000412D
:1084B0004FF0000070BD50EA410606BF1046194655
:1084C00052EA430619D094EA0C0F02D150EA013661
:1084D00013D195EA0C0F05D152EA03361CBF1046A2
:1084E00019460AD181EA030101F0004141F0FE4141
:1084F00041F470014FF0000070BD41F0FE4141F4C5
:10850000780170BD81F0004102E000BF83F00043BC
:1085100030B54FEA41044FEA430594EA050F08BF1E
:1085200090EA020F1FBF54EA000C55EA020C7FEAE2
:10853000645C7FEA655C00F0E2804FEA5454D4EB5F
:108540005555B8BF6D420CDD2C4480EA020281EA29
:10855000030382EA000083EA010180EA020281EA61
:108560000303362D88BF30BD11F0004F4FEA0131B3
:108570004FF4801C4CEA113102D0404261EB4101C2
:1085800013F0004F4FEA03334CEA133302D0524248
:1085900063EB430394EA050F00F0A780A4F1010404
:1085A000D5F1200E0DDB02FA0EFC22FA05F280183E
:1085B00041F1000103FA0EF2801843FA05F3594124
:1085C0000EE0A5F120050EF1200E012A03FA0EFCA3
:1085D00028BF4CF0020C43FA05F3C01851EBE371CD
:1085E00001F0004507D54FF0000EDCF1000C7EEBEA
:1085F00000006EEB0101B1F5801F1BD3B1F5001F28
:108600000CD349085FEA30004FEA3C0C04F1010446
:108610004FEA445212F5800F80F09A80BCF1004F6F
:1086200008BF5FEA500C50F1000041EB045141EAF1
:10863000050130BD5FEA4C0C404141EB0101013CBA
:1086400028BFB1F5801FE9D291F0000F04BF0146A9
:108650000020B1FA81F308BF2033A3F10B03B3F17B
:1086600020020CDA0C3208DD02F1140CC2F10C020B
:1086700001FA0CF021FA02F10CE002F11402D8BF69
:10868000C2F1200C01FA02F120FA0CFCDCBF41EA35
:108690000C019040E41AA2BF01EB0451294330BD04
:1086A0006FEA04041F3C1CDA0C340EDC04F11404E1
:1086B000C4F1200220FA04F001FA02F340EA0300B8
:1086C00021FA04F345EA030130BDC4F10C04C4F1FE
:1086D000200220FA02F001FA04F340EA03002946DE
:1086E00030BD21FA04F0294630BD94F0000F83F428
:1086F000801306BF81F480110134013D4EE77FEA0B
:10870000645C18BF7FEA655C29D094EA050F08BF56
:1087100090EA020F05D054EA000C04BF1946104637
:1087200030BD91EA030F1EBF0021002030BD5FEA7B
:10873000545C05D14000494128BF41F0004130BDA3
:1087400014F580043CBF01F5801130BD01F00045F7
:1087500045F0FE4141F470014FF0000030BD7FEA6A
:10876000645C1ABF194610467FEA655C1CBF0B4665
:10877000024650EA013406BF52EA033591EA030F7C
:1087800041F4002130BD00BF90F0000F04BF002174
:10879000704730B54FF4806404F132044FF00005A7
:1087A0004FF0000150E700BF90F0000F04BF002120
:1087B000704730B54FF4806404F1320410F0004586
:1087C00048BF40424FF000013EE700BF42004FEA81
:1087D000E2014FEA31014FEA02701FBF12F07F43FE
:1087E00093F07F4F81F06051704732F07F4208BFB5
:1087F000704793F07F4F04BF41F40021704730B5BC
:108800004FF4607401F0004521F000411CE700BF07
:1088100050EA010208BF704730B54FF000050AE08A
:1088200050EA010208BF704730B511F0004502D58B
:10883000404261EB41014FF4806404F132045FEA8D
:10884000915C3FF4D8AE4FF003025FEADC0C18BF36
:1088500003325FEADC0C18BF033202EBDC02C2F128
:10886000200300FA03FC20FA02F001FA03FE40EABA
:108870000E0021FA02F11444BDE600BF70B54FF0BE
:10888000FF0C4CF4E06C1CEA11541DBF1CEA13559C
:1088900094EA0C0F95EA0C0F00F0DEF82C4481EA04
:1088A000030621EA4C5123EA4C5350EA013518BF24
:1088B00052EA033541F4801143F4801338D0A0FB11
:1088C00002CE4FF00005E1FB02E506F00042E0FBBE
:1088D00003E54FF00006E1FB03569CF0000F18BFC4
:1088E0004EF0010EA4F1FF04B6F5007F64F540746C
:1088F00004D25FEA4E0E6D4146EB060642EAC621FF
:1089000041EA55514FEAC52040EA5E504FEACE2E6B
:10891000B4F1FD0C88BFBCF5E06F1ED8BEF1004F6E
:1089200008BF5FEA500E50F1000041EB045170BDEA
:1089300006F0004646EA010140EA020081EA03012E
:10894000B4EB5C04C2BFD4EB0C0541EA045170BD2A
:1089500041F480114FF0000E013C00F3AB8014F1A4
:10896000360FDEBF002001F0004170BDC4F10004ED
:10897000203C35DA0C341BDC04F11404C4F120056E
:1089800000FA05F320FA04F001FA05F240EA0200C9
:1089900001F0004221F0004110EBD37021FA04F6FF
:1089A00042EB06015EEA430E08BF20EAD37070BDB9
:1089B000C4F10C04C4F1200500FA04F320FA05F018
:1089C00001FA04F240EA020001F0004110EBD3701A
:1089D00041F100015EEA430E08BF20EAD37070BD8A
:1089E000C4F1200500FA05F24EEA020E20FA04F363
:1089F00001FA05F243EA020321FA04F001F0004112
:108A000021FA04F220EA020000EBD3705EEA430E82
:108A100008BF20EAD37070BD94F0000F0FD101F0B1
:108A20000046400041EB010111F4801F08BF013CEA
:108A3000F7D041EA060195F0000F18BF704703F028
:108A40000046520043EB030313F4801F08BF013DAF
:108A5000F7D043EA0603704794EA0C0F0CEA13556B
:108A600018BF95EA0C0F0CD050EA410618BF52EA25
:108A70004306D1D181EA030101F000414FF000002B
:108A800070BD50EA410606BF1046194652EA430639
:108A900019D094EA0C0F02D150EA013613D195EAAD
:108AA0000C0F05D152EA03361CBF104619460AD1F5
:108AB00081EA030101F0004141F0FE4141F47001FF
:108AC0004FF0000070BD41F0FE4141F4780170BDEF
:108AD00070B54FF0FF0C4CF4E06C1CEA11541DBF54
:108AE0001CEA135594EA0C0F95EA0C0F00F0A7F856
:108AF000A4EB050481EA030E52EA03354FEA013183
:108B000000F088804FEA03334FF0805545EA131395
:108B100043EA12634FEA022245EA111545EA10655D
:108B20004FEA00260EF000419D4208BF964244F1F4
:108B3000FD0404F5407402D25B084FEA3202B61A13
:108B400065EB03055B084FEA32024FF480104FF4E7
:108B5000002CB6EB020E75EB030E22BFB61A75465B
:108B600040EA0C005B084FEA3202B6EB020E75EBEE
:108B7000030E22BFB61A754640EA5C005B084FEA56
:108B80003202B6EB020E75EB030E22BFB61A754623
:108B900040EA9C005B084FEA3202B6EB020E75EB2E
:108BA000030E22BFB61A754640EADC0055EA060EEF
:108BB00018D04FEA051545EA16754FEA06164FEA32
:108BC000C30343EA52734FEAC2025FEA1C1CC0D1DE
:108BD00011F4801F0BD141EA00014FF000004FF06B
:108BE000004CB6E711F4801F04BF01430020B4F12C
:108BF000FD0C88BFBCF5E06F3FF6AFAEB5EB030CE4
:108C000004BFB6EB020C5FEA500C50F1000041EBE0
:108C1000045170BD0EF0004E4EEA113114EB5C04AD
:108C2000C2BFD4EB0C0541EA045170BD41F4801180
:108C30004FF0000E013C90E645EA060E8DE60CEA88
:108C4000135594EA0C0F08BF95EA0C0F3FF43BAFA5
:108C500094EA0C0F0AD150EA01347FF434AF95EA5C
:108C60000C0F7FF425AF104619462CE795EA0C0F40
:108C700006D152EA03353FF4FDAE1046194622E70D
:108C800050EA410618BF52EA43067FF4C5AE50EAE7
:108C900041047FF40DAF52EA43057FF4EBAE12E7D7
:108CA0004FF0FF3C06E000BF4FF0010C02E000BFB8
:108CB0004FF0010C4DF804CD4FEA410C7FEA6C5C9B
:108CC0004FEA430C18BF7FEA6C5C1BD001B050EA3E
:108CD000410C0CBF52EA430C91EA030F02BF90EA29
:108CE000020F0020704710F1000F91EA030F58BFE8
:108CF000994208BF90422CBFD8176FEAE37040F04A
:108D0000010070474FEA410C7FEA6C5C02D150EAE7
:108D1000013C07D14FEA430C7FEA6C5CD6D152EAA2
:108D2000033CD3D05DF8040B704700BF8446104667
:108D300062468C461946634600E000BF01B5FFF766
:108D4000B7FF002848BF10F1000F01BD4DF808ED36
:108D5000FFF7F4FF0CBF012000205DF808FB00BF07
:108D60004DF808EDFFF7EAFF34BF012000205DF861
:108D700008FB00BF4DF808EDFFF7E0FF94BF0120AE
:108D800000205DF808FB00BF4DF808EDFFF7CEFFAF
:108D900094BF012000205DF808FB00BF4DF808EDEE
:108DA000FFF7C4FF34BF012000205DF808FB00BFBF
:108DB0004A0011D212F5001211D20DD56FF478735A
:108DC000B3EB62520ED44FEAC12343F0004343EAAF
:108DD000505323FA02F070474FF00000704750EAFA
:108DE000013002D14FF0FF3070474FF00000704764
:108DF0004FEA4102B2F1E04324BFB3F5001CDCF1BD
:108E0000FE5C0DD901F0004C4FEAC0024CEA5070F4
:108E1000B2F1004F40EB830008BF20F00100704723
:108E200011F0804F21D113F13872BCBF01F0004026
:108E3000704741F480114FEA5252C2F11802C2F158
:108E4000200C10FA0CF320FA02F018BF40F00100D9
:108E50004FEAC1234FEAD32303FA0CFC40EA0C008B
:108E600023FA02F34FEA4303CCE77FEA625307D1C8
:108E700050EA01331EBF4FF0FE4040F440007047FF
:108E800001F0004040F0FE4040F40000704700BF99
:108E900080F0004002E000BF81F0004142001FBFAF
:108EA0005FEA410392EA030F7FEA226C7FEA236CB8
:108EB0006AD04FEA1262D2EB1363C1BFD2184140AD
:108EC00048404140B8BF5B42192B88BF704710F043
:108ED000004F40F4000020F07F4018BF404211F0E6
:108EE000004F41F4000121F07F4118BF494292EA4E
:108EF000030F3FD0A2F1010241FA03FC10EB0C007A
:108F0000C3F1200301FA03F100F0004302D5494206
:108F100060EB4000B0F5000F13D3B0F1807F06D3B3
:108F200040084FEA310102F10102FE2A51D2B1F1AB
:108F3000004F40EBC25008BF20F0010040EA0300A0
:108F40007047490040EB0000013A28BFB0F5000F20
:108F5000EDD2B0FA80FCACF1080CB2EB0C0200FAD6
:108F60000CF0AABF00EBC25052421843BCBFD04025
:108F70001843704792F0000F81F4000106BF80F49F
:108F800000000132013BB5E74FEA41037FEA226C62
:108F900018BF7FEA236C21D092EA030F04D092F02D
:108FA000000F08BF0846704790EA010F1CBF002061
:108FB000704712F07F4F04D1400028BF40F00040BE
:108FC000704712F100723CBF00F50000704700F0DE
:108FD000004343F0FE4040F4000070477FEA226205
:108FE00016BF08467FEA23630146420206BF5FEAD6
:108FF000412390EA010F40F4800070474FF00003D6
:1090000004E000BF10F0004348BF40425FEA000C9C
:1090100008BF704743F0964301464FF000001CE044
:1090200050EA010208BF70474FF000030AE000BF9A
:1090300050EA010208BF704711F0004302D54042D8
:1090400061EB41015FEA010C02BF8446014600204A
:1090500043F0B64308BFA3F18053A3F50003BCFA65
:109060008CF2083AA3EBC25310DB01FA02FC634412
:1090700000FA02FCC2F12002BCF1004F20FA02F219
:1090800043EB020008BF20F00100704702F120020C
:1090900001FA02FCC2F1200250EA4C0021FA02F26D
:1090A00043EB020008BF20EADC7070477BB972B95D
:1090B0000029BEBF00204FF0004106E008BF002895
:1090C0001CBF6FF000414FF0FF3001F05DB9ADF112
:1090D000080C6DE904CE002909DB002B1ADB00F037
:1090E00081F8DDF804E0DDE9022304B07047404276
:1090F00061EB4101002B1BDB00F074F8DDF804E0AC
:10910000DDE9022304B0404261EB4101524263EBCE
:1091100043037047524263EB430300F063F8DDF80A
:1091200004E0DDE9022304B0404261EB41017047F5
:10913000524263EB430300F055F8DDF804E0DDE94B
:10914000022304B0524263EB4303704753B94AB958
:10915000002908BF00281CBF4FF0FF314FF0FF303F
:1091600001F012B9ADF1080C6DE904CE00F03AF847
:10917000DDF804E0DDE9022304B0704707EE900A51
:10918000F5EEC07AF1EE10FA01D400F00BB8F1EE72
:10919000677A08B517EE900A00F004F8404261EBD8
:1091A000410108BDD0B5FFF711FB0C4B002206466C
:1091B0000F46FFF763FBFFF7FBFD0446FFF7E4FAFA
:1091C000074B0022FFF75AFB02460B463046394652
:1091D000FFF79CF9FFF7ECFD2146D0BD0000F03D04
:1091E0000000F0412DE9F047089D04468E46002B13
:1091F0004DD18A42944669D9B2FA82F252B101FA4B
:1092000002F3C2F1200120FA01F10CFA02FC41EA5A
:10921000030E94404FEA1C48210CBEFBF8F61FFADF
:109220008CF708FB16E341EA034306FB07F199427A
:109230000AD91CEB030306F1FF3080F01F8199422D
:1092400040F21C81023E63445B1AA4B2B3FBF8F007
:1092500008FB103344EA034400FB07F7A7420AD98E
:109260001CEB040400F1FF3380F00A81A74240F2B6
:1092700007816444023840EA0640E41B00261DB121
:10928000D4400023C5E900433146BDE8F0878B4256
:1092900009D9002D00F0EF800026C5E90001304615
:1092A0003146BDE8F087B3FA83F6002E4AD18B42EF
:1092B00002D3824200F2F980841A61EB0303012099
:1092C0009E46002DE0D0C5E9004EDDE702B9FFDE85
:1092D000B2FA82F2002A40F09280A1EB0C014FEA30
:1092E0001C471FFA8CFE0126200CB1FBF7F307FB8D
:1092F000131140EA01410EFB03F0884208D91CEB30
:10930000010103F1FF3802D2884200F2CB804346CC
:10931000091AA4B2B1FBF7F007FB101144EA0144AB
:109320000EFB00FEA64508D91CEB040400F1FF313A
:1093300002D2A64500F2BB800846A4EB0E0440EA28
:1093400003409CE7C6F12007B34022FA07FC4CEA31
:10935000030C20FA07F401FA06F31C43F9404FEA24
:109360001C4900FA06F3B1FBF9F8200C1FFA8CFE39
:1093700009FB181140EA014108FB0EF0884202FA8D
:1093800006F20BD91CEB010108F1FF3A80F088804E
:10939000884240F28580A8F102086144091AA4B20B
:1093A000B1FBF9F009FB101144EA014100FB0EFE8C
:1093B0008E4508D91CEB010100F1FF346CD28E45BB
:1093C0006AD90238614440EA0840A0FB0294A1EB4C
:1093D0000E01A142C846A64656D353D05DB1B3EBA9
:1093E000080261EB0E0101FA07F722FA06F3F140D9
:1093F0001F43C5E9007100263146BDE8F087C2F180
:109400002003D8400CFA02FC21FA03F391400143F7
:109410004FEA1C471FFA8CFEB3FBF7F007FB103630
:109420000B0C43EA064300FB0EF69E4204FA02F4DC
:1094300008D91CEB030300F1FF382FD29E422DD92F
:10944000023863449B1B89B2B3FBF7F607FB163364
:1094500041EA034106FB0EF38B4208D91CEB0101E4
:1094600006F1FF3816D28B4214D9023E6144C91A64
:1094700046EA004638E72E46284605E70646E3E674
:109480001846F8E64B45A9D2B9EB020864EB0C0E7E
:109490000138A3E74646EAE7204694E74046D1E78D
:1094A000D0467BE7023B614432E7304609E764443B
:1094B000023842E703685A004CBF43F0004323F0F0
:1094C00000431844704700BF2DE9F84329B34F1EED
:1094D000044615463E464FF0000808EB060101EB36
:1094E000D171491004EBC1094846FFF7E3FF034679
:1094F000C80008308F42204409D0AB4209D8FFF79A
:10950000D9FF0138A8420AD201F10108E5E7AB42D0
:1095100005D9884501D04E1EDFE74FF000094846C7
:10952000BDE8F883012807D0022807D0044B0028A3
:109530000CBF184600207047024870470248704729
:10954000FD9B0008019C0008059C000830B5234BDA
:1095500083B004468D1E3BB301A92846AFF30080BB
:10956000E8B101992A46FFF7AFFF0146B8B1FFF70E
:10957000A1FF4B68A064012B2CD0002B01F104004B
:1095800024DBFFF797FF0023C4E913030368002BD4
:1095900011DBFFF78FFF2061002003B030BD0023F7
:1095A0000920236103B030BD0D4B0E49C91AC91003
:1095B00018460191D6E7C3F30360FFF7B3FF002815
:1095C000206114BF0020092003B030BD0123C4E98D
:1095D0001303DBE7002323610520DEE70000000022
:1095E0008C0D03081C1703080368DA0710B504463E
:1095F00006D49B0700F1480009D500F05BFC236806
:10960000590709D51A070ED5DB0613D510BD00F092
:1096100049FC23685907F5D404F1D00000F052FC4E
:1096200023681A07F0D404F5A87000F053FC2368EF
:10963000DB06EBD404F5E870BDE8104000F08EBC0A
:10964000092070470346006800B11844704700BF06
:10965000704700BF70B504460E46316C2046FFF7D8
:1096600075FF054688B9326C62612369324621462E
:10967000012098470828F0D0072806D12846316CE9
:10968000FFF7E6FF301D00F001FC26F08BF900BF6C
:109690002DE9F0470D1DD0F80C80D0F81890074642
:1096A00014460FCDADF5727D0DF10C0CACE80F003A
:1096B0000FCDACE80F000FCDACE80F0095E80F0020
:1096C00002AE4FF0000E8CE80F00C6F800E020E07C
:1096D000336C7B614FF4F07231467AA826F088F93A
:1096E0003B697AAA394650469847889B736421465D
:1096F000CDE9006905463B463A460120C04704468D
:10970000E0B94FF4F0727AA9304626F071F9082DCD
:109710001AD1316C3846FFF719FF09345FFA84FA21
:1097200005460028D4D0B36B73643A46CDE900698E
:109730003B464AF010010120C04700B109252846E8
:109740000DF5727DBDE8F087072DF7D12046316C0D
:10975000FFF77EFF03A800F099FB00BF406C704745
:10976000F0B5CB6B0B6401F1040C0E460546BCE86A
:109770000F00F9B001AC0FC4BCE80F000FC4BCE887
:109780000F000FC49CE80F004FF0FF3784E80F0074
:10979000009706E02B696A46294698470828044640
:1097A00008D110992846FFF7D1FE0028F2D00920F1
:1097B00079B0F0BD6846FFF717FF062CF7D13146A8
:1097C0002846FFF747FF00BFC160D96B826119646B
:1097D000002219465CE700BF70B5C66843690B6498
:1097E000AEB903690A4604460D4601460220984771
:1097F000072805D008280FD129462046FFF72AFF61
:109800003046296CFFF724FF281D00F03FFB0122A2
:10981000FFF73EFF26F0C6F826F0C4F8C2681AB17A
:10982000CA6B0A64002233E79AE700BF704700BFA3
:10983000836801460BB1012018477047012912D0F7
:1098400009D873B90F2A0CD800EB82021846536866
:10985000009A136070470339012994BF0120022048
:109860007047022070470846704700BF00B585B0BA
:109870000A46002303A900911946FFF7DFFF03986A
:1098800005B05DF804FB00BF012912D009D873B9F7
:109890000F2A0CD800EB8200009A1268426018462A
:1098A00070470339012994BF01200220704702202C
:1098B00070470846704700BF10B584B0002303AC62
:1098C000039200940A461946FFF7DEFF04B010BD6C
:1098D00070B5D36B136402F1040C05460C46BCE86A
:1098E0000F00ADF50E7D0DF15C0EAEE80F00BCE88B
:1098F0000F00AEE80F00BCE80F00AEE80F009CE8D8
:109900000F004FF0FF368EE80F00169610E0FFF7BD
:10991000D3FF214616A8A847034616AA6946082081
:1099200083B9049B9847052806460CD0092809D01E
:1099300026996846FFF70AFE03466A460C2116A8D8
:10994000002BE4D0092616A8FFF74EFE30460DF591
:109950000E7D70BD2DE9F04FCC6C89B01E4654F8D9
:10996000043B06940D46174600F00308002E79D0FC
:109970001A0C1B0405938DF81D200223D2B204EBB0
:1099800082048DF81C302B6DB8F1020F08BFAC6B50
:1099900013F001030CD005A9384600F079FB18B983
:1099A000082009B0BDE8F08F092009B0BDE8F08FAC
:1099B000D4F800A0BAF1000FEDD0019300F0080335
:1099C0000293022E4AD0B4F800A0B4F802900434F6
:1099D000AB6C29F0010B0F2138469B44FFF746FF83
:1099E000834539D82AF001039B44834594BF002066
:1099F00001204FEA490303F002030AF0010A43EA97
:109A00000A03012B49D0022B32D0002BCCD1B8F164
:109A1000000F02D0002840F0CD800434D4F800A01C
:109A2000BAF1000FCDD105A9384600F031FB00286E
:109A3000BAD1019B002BB3D00F213846FFF716FF98
:109A40000E2102463846FFF737FF38466A4A0F2193
:109A5000FFF732FF0720A8E70020CAE7D4F80490F8
:109A60000834B5E71B0205930323ADF81C308AE7E1
:109A7000236823F0004BB8F1000F45D128B1029ABA
:109A8000002A5CD0BBF1000F74D0002B00DA043444
:109A90000BF1010B04EB8B04C0E7B8F1000F19D1F7
:109AA000B0B163682268991C4FEAD2723FF47CAF70
:109AB00005F158010133049100F09080201DFFF75B
:109AC000C1FD04AB0146284625F0C6F900285BD14C
:109AD0000834A3E70D213846D5F82090FFF7C6FEDD
:109AE0008145F5D1AB6A9C42F2D12046FFF7E2FCFA
:109AF0000F2102463846FFF7DFFE38462A4600218E
:109B0000FFF7DAFE072050E70D213846D5F8209000
:109B1000FFF7ACFE814501D02368B6E7AB6A9C42F3
:109B2000FAD104230022C5E90B23E318C5F828B0B5
:109B30006B632368002B59DB01230193A8E705F130
:109B40005803CDF80C8004F1040AB04691461E4635
:109B50000EE050460496FFF775FD0022014604AB67
:109B6000284609F101090AF1040A25F075F9E0B95E
:109B7000D945EED10D213846FFF778FE049BAC6243
:109B8000C5E90803062010E781460D213846FFF796
:109B90006DFEB9F1020F286225D12B46049A43F8D5
:109BA0002C2F6B62AC620620FFE646462368DDF888
:109BB0000C806AE72046FFF77DFC04340246AC6364
:109BC0002846144625F0A6F900283FF4EDAE3846A5
:109BD00022460F21FFF770FE0720E6E60D213846EA
:109BE000FFF744FE2862049B6B62DBE70BF1010088
:109BF00004EB80007AE700BF61F802080023A9E6C1
:109C00000123A7E60223A5E62DE9F0430646C3B0EB
:109C100015461C46042900F2BF80DFE801F09E577C
:109C2000BD2D0300002C40F0B780102A00F2B48054
:109C30000368D80600F1F98020AF384600F098F9A3
:109C4000B46B394600234FF0010C0CFA03F22A42A0
:109C5000204603F1010303D050F8042B0A600446A8
:109C6000042B01F10401F0D13846B46300F076F919
:109C7000002043B0BDE8F083032C40F08D8094B207
:109C800004EB1243102B4FEA124500F28580036863
:109C90001F0700F1D28020AF384600F03DF9B26BCB
:109CA00007EBC50154B10B46D01A01EBC401E40027
:109CB0001D5843F8045B8B42FAD122443846B26304
:109CC00000F008F9002043B0BDE8F083012C4FEA12
:109CD000124895B25CD0052C5ED108EB0509B9F1AC
:109CE000200F59D8B8F10F0F79D9A946002D40F0AF
:109CF0008A80B36B6DB320AF4FF0000907EBC80744
:109D0000043F03EBC50553F8041B47F8041FAB429F
:109D1000F9D1B9F1000F0FD06F464146102938BF75
:109D2000102107EBC101843903EBC90553F8040B7B
:109D300041F8040FAB42F9D1012C00F08680B8F154
:109D40000F0FB56347D9B9F1000F02D0684600F094
:109D5000B9F8002043B0BDE8F083ECB9806B23462E
:109D60001FFA82FC0124371D04FA03F212EA0C0FD9
:109D7000014604D051F8042B47F82320084601334C
:109D8000102BF1D115F40055E3D1B063284604E05F
:109D900008EB0503102B03D9022043B0BDE8F08384
:109DA000B8F10F0FF8D83368DA0706D5304623F03C
:109DB000030340F8483B00F079F820AF384600F044
:109DC00075F8B36B002D97D11D460435B563384641
:109DD00000F068F8BDE720A800F06CF8B3E7B9F12F
:109DE000100F40D9A9F110093368D90708D523F01D
:109DF0000103304643F0020340F8483B00F05EF8B0
:109E0000B9F1000F32D033685A0720D4B8F10F0FE0
:109E100025D96F463846C8F1100500F057F8002DD7
:109E2000B36B7FF77AAF20AF68E723F0100333609E
:109E300006F5E87000F09CF8FEE623F008030360E6
:109E400000F5A87000F068F825E720AFBDE73046C0
:109E500023F0040340F8D03B00F038F8D6E720A800
:109E600000F02CF8D5E74FF00009BDE7B8F10F0F6F
:109E70003FF63FAF20AF384600F020F8B36B002D1F
:109E80007FF43AAF384600F015F862E700F134018C
:109E900091E838009C46A6464CF8045D90E8FF0F18
:109EA000E54600BD90EC210B704700BF80EC210B14
:109EB000704700BF90EC200B704700BF80EC200B78
:109EC000704700BFD0EC200B704700BFC0EC200BE8
:109ED000704700BFF0EC0201F0EC0211F0EC02213F
:109EE000F0EC0231F0EC0241F0EC0251F0EC0261D6
:109EF000F0EC0271F0EC0281F0EC0291F0EC02A1C6
:109F0000F0EC02B1F0EC02C1F0EC02D1F0EC02E1B5
:109F1000F0EC02F1704700BFE0EC0201E0EC02114E
:109F2000E0EC0221E0EC0231E0EC0241E0EC025115
:109F3000E0EC0261E0EC0271E0EC0281E0EC029105
:109F4000E0EC02A1E0EC02B1E0EC02C1E0EC02D1F5
:109F5000E0EC02E1E0EC02F1704700BFB0FC0181EF
:109F6000B0FC0191B0FC01A1B0FC01B1704700BF91
:109F7000A0FC0181A0FC0191A0FC01A1A0FC01B109
:109F8000704700BFEC4600B52DE900502DE9FF1FDA
:109F90004FF000032DE90C0001A9FFF7E1FBDDF80C
:109FA00040E012B0704700BFEC4600B52DE900500C
:109FB0002DE9FF1F4FF000032DE90C0001A9FFF769
:109FC0000BFCDDF840E012B0704700BFEC4600B576
:109FD0002DE900502DE9FF1F4FF000032DE90C0083
:109FE00001A9FFF71BFCDDF840E012B0704700BF8D
:109FF000EC4600B52DE900502DE9FF1F4FF000039E
:10A000002DE90C0001ABFFF7DFFBDDF840E012B0FB
:10A01000704700BFEC4600B52DE900502DE9FF1F49
:10A020004FF000032DE90C0001AAFFF751FCDDF809
:10A0300040E012B0704700BF027A03467AB9427A14
:10A04000A2B14168013A10B44272086803220C1DA3
:10A050001A7202025C60000E10BC1A607047006841
:10A06000013A1A7202021A60000E7047B02070475F
:10A0700000B585B0002303AA009219460C22FFF711
:10A08000DDFB039805B05DF804FB00BFF0E700BFFF
:10A090002DE9F043054685B00E464FF000083046E6
:10A0A000FFF7CAFFB028044600F0BA80070620D5A3
:10A0B00000F0F003802B4DD0902B36D0A02B60D039
:10A0C000B02B74D0C02B00F08B8000F0F803D02BA5
:10A0D0000BD100F007020132052342F400220121D6
:10A0E0002846FFF791FD0028D9D0092005B0BDE82A
:10A0F000F0838300DBB21F1D0DF10C09002319460C
:10A10000CDF800900D222846FFF798FB039BCDF871
:10A11000009060064CBFDF1BFF1800230D2219467C
:10A1200028460397FFF7B0FBB9E700F00D030D2BAE
:10A13000DBD003AF002300F00F021946009728463A
:10A14000FFF77CFB002300970D2219462846FFF7F6
:10A150009BFBA4E73046FFF76FFF24022043B0F5D6
:10A16000004FC2D004010023A2B219462846FFF7CF
:10A170004BFD0028B9D114F4004F18BF4FF001086F
:10A180008DE7C24302F007034FF47F621A410107D3
:10A1900002F47F624FF0000348BF42F48042194648
:10A1A0002846FFF731FD00283FF479AF9DE7B1283D
:10A1B0003BD0B22800F09380B32841D000F0FC03DC
:10A1C000B42B92D000F007020132012342F40022A6
:10A1D00019462846FFF718FD00283FF460AF84E7D2
:10A1E000C6284AD0C72854D000F0F803C02B63D04B
:10A1F000C82868D0C9287FF478AF3046FFF71CFF25
:10A20000020300F00F0002F470220130024301212A
:10A2100005232846FFF7F8FC00283FF440AF64E729
:10A22000B8F1000F18D0002060E73046FFF704FFB8
:10A23000024600283FF459AF10F0F003C8D054E7AD
:10A240003046FFF7F9FE020300F00F03013302F47A
:10A2500070221A430123BBE703AC43460E2241465A
:10A2600000942846FFF7EAFA009443460F2241463D
:10A270002846FFF709FB404638E73046FFF7DCFE8B
:10A28000020300F00F03013302F470221A43032388
:10A290009EE73046FFF7D0FE024600283FF425AF88
:10A2A00010F0F0037FF421AF04212846FFF7ACFC47
:10A2B00000283FF4F4AE18E700F00F020132032348
:10A2C00042F4202284E73046FFF7B6FE00F0F002A9
:10A2D00000F00F031032013343EA023297E7002304
:10A2E0000DF10C090D221946CDF800902846FFF714
:10A2F000A5FA3046FFF7A0FE02064FF002040CD587
:10A30000039B00F07F00A040184403903046FFF705
:10A3100093FE030604F10704F2D4039BCDF80090EA
:10A3200000F07F02A24003F501731A440023039258
:10A3300019460D222846FFF7A7FAB0E610B5C26C01
:10A34000536884B04FF0030C08321C0208461B0E01
:10A3500001A9019402928DF80CC08DF80D30FFF721
:10A3600097FE04B010BD00BF08B5FFF78FFE806CEC
:10A3700008BD00BF08B5FFF789FEC06CC379023382
:10A3800000EB830008BD00BF704700BF10F8012B31
:10A3900011F8013B012A28BF9A42F7D0D01A704722
:10A3A00008B50021044600F08BF8044B1868C36B15
:10A3B00003B19847204625F037FD00BF6C02030823
:10A3C00070B50D4E0D4D761BB61006D0002455F815
:10A3D000043B01349847A642F9D1094E094D761B3A
:10A3E00025F0A4FEB61006D0002455F8043B013435
:10A3F0009847A642F9D170BD1C1703081C17030823
:10A40000401703081C170308830730B548D0541EB3
:10A41000002A3FD0CAB2034601E0013C3AD303F818
:10A42000012B9D07F9D1032C2DD9CDB245EA052585
:10A430000F2C45EA054536D9A4F1100222F00F0C85
:10A4400003F1200EE6444FEA121C03F1100242E928
:10A45000045542E9025510327245F8D10CF101025F
:10A4600014F00C0F03EB021204F00F0C13D0ACF13C
:10A47000040323F003030433134442F8045B9342C0
:10A48000FBD10CF003042CB1CAB21C4403F8012B1D
:10A490009C42FBD130BD64461346002CF4D1F9E751
:10A4A00003461446BFE71A46A446E0E7024B13B141
:10A4B000024800F06BB870470000000099A5000842
:10A4C0002DE9F84F2F4B2DED028B834618680F4670
:10A4D00000F082F82C4BD3F80080D8F84861AEB178
:10A4E00008EE10BA4FF001094FF0000A7468651EBB
:10A4F0000CD4013406EB840487B1D4F80031BB429C
:10A500000CD0013D6B1CA4F10404F5D1BDEC028B11
:10A510001C4B1868BDE8F84F00F066B873682268F5
:10A52000013BAB420CBF7560C4F800A0002AE8D024
:10A53000D6F88801D6F804B009FA05F101420BD12A
:10A54000904772685A4513D1D8F84831B342D8D0F1
:10A550001E46002ECAD1D9E7D6F88C0101420CD193
:10A56000D4F8801018EE100A904772685A45EBD064
:10A57000D8F84861002EB9D1C8E7D4F880009047D8
:10A58000DFE700BF380500206C0203080023014606
:10A590001A46184600F02AB838B5084B084D5B1B20
:10A5A0009C1007D0043B1D44013C55F804399847E2
:10A5B000002CF9D1BDE8384025F0BEBD4417030892
:10A5C00040170308704700BF704700BF704700BFC7
:10A5D000704700BF704700BF704700BF0120704741
:10A5E00001207047704700BF704700BF2DE9F0475A
:10A5F000DFF880A00646DAF8000098460F4691463C
:10A60000FFF7EAFF1A4B1B68D3F8484124B365688B
:10A610001F2D26DC5EB96B1C0235DAF80000636082
:10A6200044F82570FFF7E0FF0020BDE8F08704EB59
:10A6300085010123C1F88890D4F88821AB401A43E2
:10A64000022EC4F88821C1F80881E4D1D4F88C2105
:10A650001343C4F88C31DEE703F5A674C3F8484110
:10A66000D5E7DAF80000FFF7BFFF4FF0FF30DCE777
:10A670006C0203083805002010B4084BDFF820C036
:10A680007B4453F80C400460064818580446802068
:10A690000C605DF8044B1060704700BF5CDBFFFF8F
:10A6A0008C7D0200F87C020010B4084BDFF820C05B
:10A6B0007B4453F80C400460064818580446802038
:10A6C0000C605DF8044B1060704700BF2CDBFFFF8F
:10A6D000407E0200A47E0200704700BF704700BFAA
:10A6E000704700BF704700BF10B40B490B4B794453
:10A6F000CA585468046054F8484C91680151016884
:10A70000D46851F8381C4450D2E9064154F8382C2A
:10A710005DF8044B81507047EEDAFFFFD47C0200F5
:10A7200030B40D4A0D4B01687A4451F80C1CD358D3
:10A730005C684450421854F8484C9D6815519C6917
:10A74000405854F8381C50F8380CDC68DB69145059
:10A75000104630BC53507047B4DAFFFFD47C02007F
:10A760000148784401F08CBAA66AFF1701460248F6
:10A77000784400F051BF00BFA46CFF1710B504214E
:10A78000044624F044FB204610BD00BF10B5142140
:10A79000044624F03CFB204610BD00BF02F086BFFB
:10A7A0000C3001F08FBE00BF0C3001F085BE00BF41
:10A7B00010B50446D0F8400121F04CF8D4F840011F
:10A7C00021F06EF8204610BD09B102F0C9BA02F0BE
:10A7D000BFBA00BF006802F00DB800BF012A05D063
:10A7E000022A04BF0B68036000207047016000204C
:10A7F000704700BF10B523F081FEC36823B1036921
:10A80000BDE810400430184724F085FF70B50B4BAD
:10A810000B4A7B4404469A580832064644F85C2B9F
:10A8200000F10C05A3681BB103222146204698477E
:10A83000103CAC42F6D1304670BD00BFCAD9FFFF14
:10A84000847D020070B50D4B0D4A7B4404469A5836
:10A850000832054644F86C2B00F11C0654F8083CFD
:10A86000103C1BB10322214620469847B442F5D143
:10A8700028466C2124F0CBFA284670BD92D9FFFF00
:10A88000847D0200D0F8703210B5044623B100F583
:10A890001A71032208469847204610BD10B50C498E
:10A8A0000C4B794482B0CA58002308320260044637
:10A8B00000931A464068052123F0BEFB236923B1AB
:10A8C00004F10801032208469847204602B010BD53
:10A8D0003AD9FFFFE47C0200836810B5044613B147
:10A8E000032201469847204610BD00BFF0B500F195
:10A8F0001C0487B00D466C30A3682BB11034844221
:10A90000FAD1002007B0F0BDAF6804930FB302AED8
:10A91000022229463046B847D5E90223A5680495A6
:10A9200096E80300A260E268E3606B4683E80300F8
:10A9300094E8030086E8030093E80300059284E8A6
:10A9400003001DB1032231463046A847012007B05D
:10A95000F0BD02AB93E80300059AE2606B4683E822
:10A96000030084E80300F1E73046FFF7B5FF24F069
:10A9700050FA00BF10B582B002F098FE07EE900AC0
:10A980009FED1F7ADFED1F6AF8EE677A684667EE83
:10A99000877A87EEA67AFCEEC77A17EE903A9CB2D9
:10A9A00024F022FADDE9000300EB400003EB800015
:10A9B000834202D112E0984210D01A79022A194635
:10A9C00003F10C03F7D1814208D00B89A34208D8C8
:10A9D000CB88A34205D90B79022B0DD0602002B0A1
:10A9E00010BD01F10C039842F8D01A79022A1946D9
:10A9F00003F10C03F7D1E6E7702002B010BD00BFF1
:10AA000000404E4500F07F4538B50B4B7B449A8A99
:10AA10000A4B82427B4400D038BD094A9D5805F15B
:10AA20001C046C35A36820460BB1E36898471034CA
:10AA3000AC42F7D138BD00BF0068FF17C8D7FFFF91
:10AA4000607E02002DE9F04387B00E469146054630
:10AA500005F050F8D0F80080214C04F099FB0590E7
:10AA600004F09CFB049004F09FFBDFF878C0019594
:10AA7000FC447C44CDF808C0DFF86CC054F80C707E
:10AA80000097DDE90421034640460BF059F8174BC7
:10AA9000E05802F071FD164BE05802F075FD154BC1
:10AAA000E05802F079FD05F025F8046804F088FB11
:10AAB00011490095024606F160037944204607F0EB
:10AAC00049FA05F017F8046804F07AFB009502468D
:10AAD00033464946204608F02FFF07B0BDE8F08313
:10AAE0006AD7FFFF4869FF17607E0200B47E02004C
:10AAF000987E0200847E02001269FF17F0B587B0CD
:10AB00000E46054604F0F6FF0768184C04F040FBBB
:10AB1000059004F043FB049004F04CFB03463846D8
:10AB2000134FDFF850C001957C447F44029754F8DE
:10AB30000C700097DDE904210BF002F80E4BE05891
:10AB400002F01AFD0D4BE05802F026FD04F0D2FF92
:10AB5000046804F035FB0A490095024679443346FF
:10AB6000204607F035F807B0F0BD00BFB4D6FFFFB0
:10AB70008E68FF17607E0200B47E0200847E0200B1
:10AB80007068FF1730B583B001F07EFF01F0D8FF89
:10AB900002F0B6FA02F05AFD4FF4FA7001F050FFDD
:10ABA000264CFFF7E7FE7C440546204602F0E0F81D
:10ABB0002348A168784402F02BFF2248616878445A
:10ABC00002F026FF02F030FB002834D102F05EFED6
:10ABD0001D4B7B441A6D4AB15C6822F005F80121D7
:10ABE000024600910023204623F026FA0123042286
:10ABF00011200F2101F0CAFC14482946784404F0C2
:10AC000085FF134A134914487A447944784404F080
:10AC1000A3F81249124A79447A4428463831FFF79A
:10AC20006DFF10480621784401F0EEFB21F078FF1B
:10AC3000002003B030BD02F0DDFDC7E7C267FF179B
:10AC4000C059FF17AE59FF178A68FF176068FF17D2
:10AC5000246BFF176259FF176859FF178665FF17A6
:10AC60009C67FF178E68FF17036B002B036A1A6837
:10AC7000F0B5044652F8380C1A5885B01844CCBFC9
:10AC80009368D36898472578002D00F08A8094F85F
:10AC90003A50012D00F0F080022D00F09480A3685E
:10ACA000A56AE268E06AAB4272EB0001C0F0C180C5
:10ACB00094F83830002200200021FF2BC4E9020163
:10ACC000227019D0236A25691968626951F8380C15
:10ACD000ED0F45EA42051A581844136A9847218F28
:10ACE000ADF8001002460123E06901956946029221
:10ACF0008DF80C3006F034FFA3690025D3F840012D
:10AD0000A562C4E90B55C4E90D55E56304F12806B5
:10AD100020F030FD00284FD0A3696A46D3F84001E7
:10AD20000095314620F054FC009B4BB14FF0E023DE
:10AD30004FF08052C3F8042DBFF34F8FBFF36F8FD6
:10AD4000002814BF01230023237009D094F83A305F
:10AD5000012B05D14FF0FF326FF00043C4E904230B
:10AD6000A268A06AE168E36A824271EB030323D21E
:10AD7000D4E90C3520692B4401326569A26041F1A8
:10AD800000011A18236345EBE37395EA030FC4E946
:10AD90000423E16082EA000200F1D180002A5FDB37
:10ADA0000AE0A369D3F8400120F0E4FC00286FD149
:10ADB0002378002B7FF46BAF206A03685B6B05B0D0
:10ADC000BDE8F0401847236A1A6852F8380C1A5840
:10ADD0001844D369984700283FF461AF94F838309D
:10ADE000002200200021FF2BC4E90201227018D0AC
:10ADF000D4E90462236AF60F46EA42061A6852F85A
:10AE0000380C1A581844136A9847228FADF800205E
:10AE100003466946E0698DF80C50CDE9016306F000
:10AE20009FFE0022C4E90A22C4E90C22C4E90E22D2
:10AE3000C2E7D4E90C16D4E9047C0133314442F171
:10AE40000002CE1921634CEBE1719CEA010FC4E9C9
:10AE50000461C4E9023286EA070606D4002E06DA47
:10AE6000206A03681B6B9847A6E7C4E9047CAB42E1
:10AE700072EB0003A0D31BE7236A1A6852F8380C60
:10AE80001A5818449369984750BB94F83A5003E70E
:10AE9000A3696A46D3F84001009504F1280120F027
:10AEA00097FB009B4BB14FF0E0234FF08052C3F86B
:10AEB000042DBFF34F8FBFF36F8F002814BF012302
:10AEC000002323703FF478AF94F83A30012B7FF4DD
:10AED00073AF4FF0FF326FF00043C4E904236BE718
:10AEE000236A1A6852F8380C1A58002600271844AA
:10AEF000C4E90467536A984794F838300022FF2B5E
:10AF0000C4E9026722708CD0236A256919686269D6
:10AF100051F8380CED0F45EA42051A581844136AE7
:10AF20009847218FADF8001002460223E069019591
:10AF3000694602928DF80C3006F012FE71E7C4E902
:10AF4000040539E708B502487844FFF78DFE08BDCF
:10AF50002C64FF1710B50821044623F058FF204643
:10AF600010BD00BF10B50E490E4B794482B0CA58CF
:10AF7000002308320260044600931A464068052107
:10AF800023F05AF8236923B104F10801032208468B
:10AF900098472046582123F03AFF204602B010BDC2
:10AFA00072D2FFFFE47C020010B50821044623F0B2
:10AFB0002EFF204610BD00BF2DE9F04F984C994D53
:10AFC000994EDFF868A2DFF868827C4495B020468D
:10AFD00001F0FCF97D44974B974AE9587A442046A2
:10AFE00023F010FF01F0FEFA944B7E444FF0000B6B
:10AFF000EB580E96CDF840B00EAC074694E803002F
:10B0000006F1080E0DF1300C8CE803009EE80300F9
:10B0100084E803009CE8030008338EE80300C6E9D7
:10B02000003B55F80A0030617069119055F808002E
:10B03000706106F118032C2259461846FFF7E4F90F
:10B040007F4B0190012272647E48EB580093784454
:10B05000331DFA2122F0A6FF7B4B7B445860109BE6
:10B060001BB10322214620469847784BDFF8E08148
:10B07000784EDFF8E4A1DFF8E4B17B444FF000093B
:10B080001846C3E9127983F85690644B03654FF470
:10B090000063A0F85430724B724FE958F8444246AE
:10B0A00023F0B0FE704BEB587E441968304602F036
:10B0B000EBFC6E4B4246E958304623F0A3FE6C4B46
:10B0C0006C48EE5842463146784423F09BFE6A486D
:10B0D00042463146784423F095FE6848684B7844F0
:10B0E00002214FF48042C0E902120122C0F804900C
:10B0F0000261EB5808330360624B7F44E9584246D3
:10B1000023F080FEFA44384600F0C8F9504600F0BB
:10B11000C5FD5D4B4246E958504623F073FE07F1EA
:10B120000C0CBCE80F006E460FC6BCE80F000FC643
:10B130009CE8070086E80700FB4497E80E005846A5
:10B1400000F0B6FA514B4246E958584623F05AFEF1
:10B150004F4852465946784400F062FA4D485246EC
:10B160005946784400F03AFB07F1100CBCE80F0098
:10B17000EE46AEE80F00BCE80F00AEE80F009CE81A
:10B18000030086E80300444E97E80F007E4400F079
:10B1900059FC5146304600F051FC30463F4E404F7E
:10B1A00051467E4400F068FD304600F0DDF90FCED8
:10B1B000A4460FC496E8030084E80300DFF8E4A087
:10B1C000EF5955F80A30DFF8E0E0C7F834903E4612
:10B1D000083346F8043BBCE80F000FC694E80300B0
:10B1E00086E80300C7F84490C7F85490C7F8649005
:10B1F000C7F8249055F80E104246384615B0BDE801
:10B20000F04F23F0FFBD294878440830FFF764FB76
:10B210002046FFF761FB23F0FCFD00BF000400485F
:10B22000EA64FF1708D2FFFF7264FF17AC7D0200CB
:10B23000D07C0200247D02002851FF17E47C02002C
:10B24000707D02001E5202000264FF17E263FF17C6
:10B250006850FF178466FF172061FF17DC62FF1735
:10B260007C7C0200A260FF17E07D0200007F0200EC
:10B27000447E0200AC54FF179854FF17DA62FF17A0
:10B28000BC7D0200287F02000C7F0200487E020085
:10B290001E62FF176A62FF177860FF176A60FF1768
:10B2A000607E0200847D0200B07D02005462FF17C0
:10B2B000034630B41A4C1C621A4C1C6040251A4CD0
:10B2C0009D6240F21F75C3E90154DFF86CC0174C52
:10B2D00017485862C3E903C400224FF42704C3E9A6
:10B2E0000522DC6131B101290ED0124ADA6218461A
:10B2F00030BC70471149794403C903F1280282E840
:10B30000030030BC184670470D4A7A44083292E870
:10B31000030003F12804C4E90001184630BC70475B
:10B32000CDCCCC3D040000100000FFFF0200000661
:10B330006666A63E000800480FD501016E4E020069
:10B340005A4E020030B40D490D4C016200220D49E5
:10B350000D4DC261C0E9052244620C4A0C4CC16229
:10B360000C49056002614FF480554FF4E262C0E978
:10B3700002418562426030BC704700BFCDCCCC3DFD
:10B380006666A63E000400480400000203000006B2
:10B390000000FFFF0FD501010D490E4A30B4C0E98E
:10B3A00002124FF090444FF48232C0E9044200226E
:10B3B0004025C0E90822C0E90A22074AC0E9001571
:10B3C00005F58035C0E90645C0E90C1230BC704770
:10B3D00000080048800001000400010038B5044660
:10B3E000D1B1012933D12848284A29492060294868
:10B3F000E0604FF0904C4FF48230C4E904C0C4E9DF
:10B400000620C4E90112C4E90C210023C4E9083371
:10B41000C4E90A33204638BD1B4B1F484FF00115C5
:10B42000C4E90035C4E902304FF090454FF4823052
:10B43000C4E9045015484FF48832C4E90C02C4E949
:10B440000632C4E90811C4E90A11204638BD342285
:10B4500000210430FEF7D8FF01234FF09042102165
:10B460000948A3714FF0400CA373A375A377802301
:10B470002061A4F804C02260A260A182A261A1831D
:10B48000A381204638BD00BF0004004800080048E2
:10B4900080000100040001000200010070B59AB0B4
:10B4A0006D4606460CAC28460021FFF74BFF2046B0
:10B4B0000021FFF771FFA446BCE80F00B646AEE8D6
:10B4C0000F00BCE80F00AEE80F00BCE80F00AEE8CC
:10B4D0000F009CE803002C468EE803000FCC06F119
:10B4E00038050FC50FCC0FC594E80F0085E80F0095
:10B4F00030461AB070BD00BF10B50446FFF7CEFF4E
:10B50000204610BD70B5CEB06D46044601212846D8
:10B51000FFF7CEFE0CA80021FFF7CAFE24AE18A844
:10B520000221FFF7C5FE30460121FFF757FF32A881
:10B530000021FFF753FF40A80221FFF74FFF3146DC
:10B54000A822204624F054FA9022294604F1A800AB
:10B5500024F04EFA20464EB070BD00BF10B5044630
:10B56000FFF7D0FF204610BDDFF820C0FC440CF1EF
:10B57000100C10B504468646BCE80F00AEE80F007C
:10B580009CE803008EE80300204610BDF84B020043
:10B59000DFF820C0FC440CF1100C10B504468646C0
:10B5A000BCE80F00AEE80F009CE803008EE8030043
:10B5B000204610BDD04B0200DFF828C0FC440CF13F
:10B5C000280C10B504468646BCE80F00AEE80F0014
:10B5D000BCE80F00AEE80F009CE80F008EE80F00FB
:10B5E000204610BDA84B0200DFF828C0FC440CF137
:10B5F000280C10B504468646BCE80F00AEE80F00E4
:10B60000BCE80F00AEE80F009CE80F008EE80F00CA
:10B61000204610BD784B020000F094BE00000000F0
:10B6200070B50D460446164606F0B4FA2B689FED39
:10B630000C7B53F8481CE06100230D4484ED027B31
:10B6400084ED047BC4E90B33C4E90D33A6612562A4
:10B650002370A3622046E36370BD00BFAFF3008098
:10B66000000000000000000070B50D4604461646BC
:10B6700006F090FA2B689FED0C7B53F8481CE061B4
:10B6800000230D4484ED027B84ED047BC4E90B337D
:10B69000C4E90D33A66125622370A3622046E363EB
:10B6A00070BD00BFAFF3008000000000000000008C
:10B6B00084B02DE9F0410DF11C0C8CE80E001C4DFE
:10B6C0001C4B1D4F1D4E7D440446EB589A69D869AA
:10B6D00052F8381C5A686050226052F8482C996819
:10B6E000A150DA68236853F8383CE250144BEB5809
:10B6F000A64648334EF8043BBCE80F00AEE80F0006
:10B70000BCE80F00AEE80F00BCE80F00AEE80F0089
:10B710009CE803008EE80300EB59E363AB594FF05C
:10B7200000082046C4E91038BDE8F04104B0704775
:10B7300016CBFFFFD47C0200FC7E0200A87E020034
:10B74000C47C020084B02DE9F04107AC84E80E000F
:10B750001D4D1E4B1E4F1F4E7D448446EB58D3E9B2
:10B76000062152F8382C81505A68026052F8482C51
:10B77000996881500268D96852F8382C164B81506C
:10B78000EB580DF18C0E483304464CF8043BBEE8F0
:10B790000F00ACE80F00BEE80F00ACE80F00BEE8F9
:10B7A0000F00ACE80F009EE803008CE80300EB59A3
:10B7B000E363AB594FF000082046C4E91038BDE8F8
:10B7C000F04104B0704700BF84CAFFFFD47C020080
:10B7D000FC7E0200A87E0200C47C02002DE9F04736
:10B7E00092B008AD0E46044600212846904602F06D
:10B7F00027FC336853F8483C1E44364B7B440FCB40
:10B80000EE46AC468EE80F00BCE80F000DF134099F
:10B810004F46A9E80F009EE80F00DCF800900DF1FC
:10B82000100C8CE80F000FCF25460FC594ED020ACF
:10B83000D4ED017AC5F800909CE80F0094ED047AED
:10B84000666167EE807A94ED000A67EE877A04F10C
:10B85000180A87EE800A8AE80F00C4F828801F20A3
:10B860000DF0FAFAC4E90C012068FCF7AFFF0646B8
:10B87000E0680F46FCF7AAFF144B0022FCF7FEFF1E
:10B88000804620698946FCF7A1FF02460B464046E8
:10B890004946FCF7F3FF02460B4630463946FDF7B2
:10B8A00017F90B4B0022FCF7E9FFFDF7A1FA00EEB8
:10B8B000100A1F200DF0D0FA0023C4E90E01204623
:10B8C000A4F8403012B0BDE8F08700BF000010407F
:10B8D00000408F40C04902002DE9F04792B008AD0A
:10B8E0000E46044602212846904602F0A9FB336822
:10B8F00053F8483C1E44364B7B440FCBEE46AC46D7
:10B900008EE80F00BCE80F000DF134094F46A9E89E
:10B910000F009EE80F00DCF800900DF1100C8CE891
:10B920000F000FCF25460FC594ED020AD4ED017A22
:10B93000C5F800909CE80F0094ED047A666167EE0C
:10B94000807A94ED000A67EE877A04F1180A87EE90
:10B95000800A8AE80F00C4F828801F200DF07CFAC6
:10B96000C4E90C012068FCF731FF0646E0680F4689
:10B97000FCF72CFF144B0022FCF780FF8046206967
:10B980008946FCF723FF02460B4640464946FCF732
:10B9900075FF02460B4630463946FDF799F80B4BCA
:10B9A0000022FCF76BFFFDF723FA00EE100A1F20C0
:10B9B0000DF052FA0023C4E90E012046A4F84030ED
:10B9C00012B0BDE8F08700BF0000104000408F407B
:10B9D000C44802002DE9F843044616460D4607F018
:10B9E000A5FF002706F536734FF000084FF0000959
:10B9F000A3613946E06120222562C4E90289C4E9D5
:10BA00000489277004F12800FEF7FEFC07F082FF8E
:10BA100006F5A27648356066C4E91489C4E916893A
:10BA20002666A56684F848702022394604F1700025
:10BA3000FEF7EAFC2046BDE8F88300BF4FF00000A7
:10BA4000704700BF84B08DE80F004FF0000004B0D5
:10BA5000704700BF84B02DE9F04F87B00DF1440C62
:10BA60008CE80E00334F344BDFF8D0A07F440446FF
:10BA7000FB58D3F804909A6959F848BC52F8382C0E
:10BA8000D8699D68A050C4F8009044F80B50DE6857
:10BA90002368019253F8383C0290E650284B0395F6
:10BAA0000496FB58A64648331FAE05934EF8043B58
:10BAB0000FCEAEE80F000FCEAEE80F000FCEAEE80F
:10BAC0000F0096E803008EE803001E4B57F80A604B
:10BAD000E663DDE9012004F14808FF58039B276471
:10BAE0000021616448F80200C4F8489048F80B301F
:10BAF000A36C53F8383C049A48F80320059BA364D0
:10BB0000BCE80F0004F14C050FC5BCE80F000FC5E1
:10BB1000BCE80F000FC59CE80300002385E8030084
:10BB20002046C4E92167C4F88C3007B0BDE8F04F67
:10BB300004B0704770C7FFFFD47C02003C7E020057
:10BB4000C47C0200A87E02002DE9F04F9FB00DF1E9
:10BB50003C0A484E0446154688465046022102F0EB
:10BB60006FFA7E4404F1180305F53672CDE90053EF
:10BB7000174696E80F0003AD85E80F00BAE80F00FE
:10BB80000DF1640BDE46ABE80F0095E80F00DAF824
:10BB900000A0CBF800A014AD85E80F00BEE80F00B0
:10BBA000A446ACE80F0094ED020AD4ED017ACCF87B
:10BBB00000A095E80F0094ED047AA76267EE807A02
:10BBC000019F94ED000AC4F8148067EE877A87E835
:10BBD0000F0087EE800A1F200DF03EF94FF000099C
:10BBE000C4E90C0184F838902846022102F028FAB2
:10BBF000009B03F5A27796E80F0007AE86E80F00DA
:10BC00000FCD0DF1640EF246AEE80F0096E80F007E
:10BC10002D68CEF800500BAE86E80F00BAE80F0092
:10BC200004F1400CACE80F0094ED120AD4ED117A47
:10BC3000CCF8005094ED147AA76667EE807A94ED04
:10BC4000100A67EE877A96E80F0087EE800A08F1FF
:10BC5000480804F1580B8BE80F00C4F854801F20EB
:10BC60000DF0FAF8C4E91C01204684F878901FB062
:10BC7000BDE8F08F5A4602004FF00000704700BF49
:10BC8000704700BF10B50446D0F840011FF0E2FD38
:10BC9000D4F840011FF004FE204610BD30B55022FC
:10BCA00083B0851800210446FEF7AEFBF022002188
:10BCB0002846FEF7A9FB0023182100932A462346B5
:10BCC0000A201EF06FFF0749C4F8400179441FF0B5
:10BCD00087FD204603B030BD2046FFF7D3FF23F099
:10BCE00098F800BFB045020030B5502283B08518E7
:10BCF00000210446FEF788FBF02200212846FEF7CB
:10BD000083FB0023182100932A4623460A201EF0B5
:10BD100049FF0749C4F8400179441FF061FD2046FE
:10BD200003B030BD2046FFF7ADFF23F072F800BF2F
:10BD30006445020010B50446D0F890011FF08AFD5A
:10BD4000D4F890011FF0ACFD204610BD70B5502214
:10BD500082B0851800210446FEF756FBF022002130
:10BD60002846FEF751FB0023182100932A4623465C
:10BD70000A201EF017FF2749C4F8400179441FF03C
:10BD80002FFD04F5A2765022002104F5CA75304635
:10BD9000FEF73AFB4FF4A07200212846FEF734FB71
:10BDA0000023202100932A4633460A201EF0FAFE83
:10BDB0001949C4F8D40279441FF012FD04F536760F
:10BDC0005022002104F54A753046FEF71DFB4FF462
:10BDD000A07200212846FEF717FB002320210093C4
:10BDE0002A4633460A201EF0DDFE0C49C4F86804DA
:10BDF00079441FF0F5FC204602B070BD2046FFF7E5
:10BE000041FF23F006F83046FFF794FF23F001F8D6
:10BE1000F9E700BF00450200DA440200B84402001E
:10BE200070B5502282B0851800210446FEF7ECFA66
:10BE3000F02200212846FEF7E7FA0023182100939C
:10BE40002A4623460A201EF0ADFE2749C4F84001C9
:10BE500079441FF0C5FC04F5A2765022002104F5B8
:10BE6000CA753046FEF7D0FA4FF4A072002128467A
:10BE7000FEF7CAFA0023202100932A4633460A20FF
:10BE80001EF090FE1949C4F8D40279441FF0A8FCB2
:10BE900004F536765022002104F54A753046FEF747
:10BEA000B3FA4FF4A07200212846FEF7ADFA002342
:10BEB000202100932A4633460A201EF073FE0C49C7
:10BEC000C4F8680479441FF08BFC204602B070BDB2
:10BED0002046FFF7D7FE22F09CFF3046FFF72AFFEF
:10BEE00022F097FFF9E700BF2C440200064402004D
:10BEF000E4430200036B002B036A1A68F0B50446A2
:10BF000052F8380C1A5887B01844CCBF9368D368DD
:10BF100098472578002D00F08C8094F83A50012D38
:10BF200000F0F480022D00F09680A368A56AE26814
:10BF3000E06AAB4272EB0001C0F0C58094F8383083
:10BF4000002200200021FF2BC4E9020122701BD037
:10BF5000236A25691968626951F8380CED0F45EAC2
:10BF600042051A581844136A9847218F236CADF87C
:10BF70000410024601208DF8100001A9E069029525
:10BF80000392059307F0A6FCA3690025D3F890015E
:10BF9000A562E56225636563A563E56325641FF01B
:10BFA000E9FB04F1280100284ED0A36901AAD3F8C7
:10BFB000900101951FF00CFB019B4BB14FF0E0236A
:10BFC0004FF08052C3F8042DBFF34F8FBFF36F8F34
:10BFD000002814BF01230023237009D094F83A30BD
:10BFE000012B05D14FF0FF326FF00043C4E9042369
:10BFF000A268A06AE168E36A824271EB030323D27C
:10C00000D4E90C3520692B4401326569A26041F105
:10C0100000011A18236345EBE37395EA030FC4E9A3
:10C020000423E16082EA000200F1D580002A61DB8E
:10C030000AE0A369D3F890011FF09CFB002871D19E
:10C040002378002B7FF469AF206A03685B6B07B02D
:10C05000BDE8F0401847236A1A6852F8380C1A589D
:10C060001844D369984700283FF45FAF94F83830FC
:10C07000002200200021FF2BC4E90201227019D008
:10C08000D4E90462236AF60F46EA42061A6852F8B7
:10C09000380C1A581844136A9847238FADF80430A7
:10C0A000CDE90260236CE0698DF8105001A9059379
:10C0B00007F010FC0023A362E36223636363A363BE
:10C0C000E3632364C0E7D4E90C16D4E9047C0133AC
:10C0D000314442F10002CE1921634CEBE1719CEA3C
:10C0E000010FC4E90461C4E9023286EA070606D4F6
:10C0F000002E06DA206A03681B6B9847A4E7C4E9A0
:10C10000047CAB4272EB00039ED317E7236A1A68E4
:10C1100052F8380C1A5818449369984750BB94F851
:10C120003A50FFE6A36901AAD3F89001019504F102
:10C1300028011FF04DFA019B4BB14FF0E0234FF067
:10C140008052C3F8042DBFF34F8FBFF36F8F0028C9
:10C1500014BF0123002323703FF476AF94F83A30E4
:10C16000012B7FF471AF4FF0FF326FF00043C4E951
:10C17000042369E7236A1A6852F8380C1A58002613
:10C1800000271844C4E90467536A984794F8383084
:10C190000022FF2BC4E9026722708BD0236A256935
:10C1A0001968626951F8380CED0F45EA42051A58D2
:10C1B0001844136A9847218F236CADF80410024687
:10C1C00002208DF8100001A9E06902950392059301
:10C1D00007F080FB6EE7C4E9040535E710B50446B7
:10C1E000FFF788FE04F14800FFF784FE10BD00BF92
:10C1F00000207047704700BF0C3000F05DB900BFF1
:10C20000043000F059B900BF143000F055B900BF38
:10C210000C3000F057B900BF043000F053B900BF34
:10C22000143000F04FB900BF243009B100F044B918
:10C2300000F048B9C06B01F08FBC00BFC06B01F0CB
:10C240008DBC00BF1C3000F043B900BF2C3000F0A3
:10C250003FB900BF343000F03BB900BF10B54821F2
:10C26000044622F0D4FD204610BD00BF00B503688F
:10C2700053F80C3C83B018444821019022F0C7FDCC
:10C28000019803B05DF804FB036853F83C3C184484
:10C290000C3000F011B900BF036853F8403C18445B
:10C2A0000C3000F00FB900BF036853F8103C18447D
:10C2B000043000F001B900BF036853F8143C18447F
:10C2C000043000F0FFB800BF036853F8183C18446E
:10C2D000143000F0F1B800BF036853F81C3C184458
:10C2E000143000F0EFB800BF036853F8303C184436
:10C2F000C06B01F031BC00BF036853F8343C1844F4
:10C30000C06B01F02BBC00BF036853F8203C1844FD
:10C310001C3000F0DDB800BF036853F8243C18441B
:10C320002C3000F0D5B800BF036853F8443C1844E3
:10C33000243009B100F0C0B800F0C4B80020704744
:10C34000704700BF436C19444164704738B1D0F85E
:10C350006C3223B1D0F8703200F51970184770476D
:10C36000012A38B5044603D10B680360002038BDAC
:10C37000022A08D0032AF9D100680028F6D0082143
:10C3800022F045FDF2E708200D6823F0F2F803469D
:10C3900095E80300236083E80300002038BD00BF58
:10C3A00010B5054B054A7B449C5801F09DFA206866
:10C3B00020F0C6FDF9E700BF36BEFFFF287E020071
:10C3C00003681B68D3F86002FFF7EABF38B50025A1
:10C3D00004465C22294645600830FEF715F84FF404
:10C3E0000072294604F16400FEF70EF8C4F86442B6
:10C3F000C4F8705201F060FA204638BD04F51A7096
:10C40000FEF76AFA22F005FD2DE9F041254D8AB0CC
:10C410000446002308207D4408930F4623F0A9F822
:10C4200006900DF1180C261D06609CE8030004F52B
:10C430001A7304AA82E8030093E803008CE803005F
:10C4400092E8030083E80300DFF85C80D4F87032E0
:10C45000089355F80820C4F87022DFF850E0D4F8AB
:10C460007422099255F80E20C4F874221BB10322DD
:10C470006146604698470E4B0E49E8580097331DB9
:10C48000029304F16403019379443346802220F03F
:10C4900067F860600AB0BDE8F08106A8FEF71CFAF4
:10C4A00022F0B7FCC6BDFFFF447D0200507D0200B4
:10C4B000847C0200383E020082798188006801F0A5
:10C4C00021BA00BF82798188006801F01FBA00BFDD
:10C4D00082798188006801F021BA00BF2DE9F0411E
:10C4E000244B82B07B44002201AE019204460D46EB
:10C4F0001868114632461FF06BF8019B4BB14FF0A4
:10C50000E0234FF08052C3F8042DBFF34F8FBFF3E9
:10C510006F8FDFF86480194FF8447F442946204626
:10C5200043463A4619F0CEFEA0B1154B7B44314646
:10C5300018681EF06DFD019B4BB14FF0E0234FF0EA
:10C540008052C3F8042DBFF34F8FBFF36F8F02B03B
:10C55000BDE8F081F86800F081F90A4A7A440346A0
:10C560001468002CE1D008483968784442460068D5
:10C57000A047DAE79053FF17B052FF178652FF1714
:10C580004853FF171053FF170653FF172DE9F041CB
:10C590000E461149114C82B00546794401201746D8
:10C5A00098461EF087FC29460D4DCDF800807D444D
:10C5B0007C443B4632462860204600F0E7FB0549B4
:10C5C0000022204619F0F0FF204602B0BDE8F041FD
:10C5D00019F092BD09000A00DE52FF175852FF17EA
:10C5E000C652FF1701487844704700BF2252FF1718
:10C5F000034A044B7A447B4410601960704700BFC3
:10C600007C52FF177652FF17034A044B7A447B444F
:10C6100010601960704700BFC052FF17BA52FF1771
:10C6200070B58AB004464FF080400025029018464D
:10C6300016460191039500F005F94FF40013CDE97A
:10C640000555CDE907350490099501E020F078FC07
:10C65000204619F073FF03460120002BF6D0324626
:10C6600001A9204619F0B4FD0AB070BD30B587B0FD
:10C6700004461D4610464FF080430191009300F0A0
:10C68000D9F803462846029300F0C8F803460393FE
:10C690000A9B049369460B9B0593204619F080FB87
:10C6A00007B030BDCB0700D4704710B54021044619
:10C6B00019F03AFF00B910BD20464021BDE81040F6
:10C6C000FFF70CBF0B0700D4704710B5412104469B
:10C6D00019F02AFF00B910BD20464121BDE81040E5
:10C6E000FFF7FCBE10B58CB001AB2C220446002134
:10C6F0001846FDF789FE0146204619F0D3FE0A4B85
:10C700007B441A6872B1069C0499084B012C18BF2F
:10C7100001397B4418BFB1FA81F1186814BF490987
:10C72000022190470CB010BDC851FF17BA51FF1736
:10C7300008461146FFF75CBF10B582B00093049B1A
:10C740000193C46C1346621CC2640A46806C214685
:10C75000FFF78CFF02B010BD806CFFF761BF00BF18
:10C76000002845D030B5036D85B004462BB10129B2
:10C770000D4637D0022919D009B105B030BD406847
:10C78000009103ABFA220921039521F055FC039B8C
:10C79000012BF2D14FF0E0234FF08052C3F8042D6B
:10C7A000BFF34F8FBFF36F8F05B030BD00220092F3
:10C7B00003AB40680392082121F03EFC039B012B50
:10C7C00009D14FF0E0234FF08052C3F8042DBFF39E
:10C7D0004F8FBFF36F8F04F1500005B0BDE83040BC
:10C7E000FFF770BE00254068009503AB3222CAE710
:10C7F000704700BF036D83B110B500F150042046AF
:10C80000FFF766FE20B12046BDE81040FFF75ABE94
:10C810002046BDE81040FFF74FBE7047042804D8FB
:10C82000034B7B4453F8200070470020704700BF43
:10C83000A63A020020B1022814BF0020022070474F
:10C8400001207047402804D8034B7B4453F8200054
:10C8500070474FF470207047923A0200B0F5E02F15
:10C860004BD00BD8B0F5403F45D019D9B0F5A02F2B
:10C8700037D0B0F5C02F0DD106207047B0F5302F5E
:10C8800037D01BD9B0F5502F31D0B0F5602F0FD174
:10C8900030207047B0F5802F14BF4020042070472F
:10C8A000B0F5803F21D0B0F5003F0FD10220704796
:10C8B000B0F5402F14BF402018207047B0F5102F5E
:10C8C00011D0B0F5202F06D110207047002814BFDA
:10C8D000402000207047B0F5002F14BF40200820F2
:10C8E0007047052070470C207047012070472020BA
:10C8F000704714207047032070470720704700BF1F
:10C90000044B0549D3F8882042F47002C3F888200C
:10C910009960704700ED00E000800008F0B5A9B014
:10C92000002406AF382221463846FDF76DFD50221F
:10C930000DEB020621463046CDE90244CDE9044420
:10C940000194FDF761FD204614F0DAFD02234FF457
:10C950008072CDE90D33CDE9113306931393402353
:10C96000CDE9092338465523042710930F9714F077
:10C9700013F90F23019301AD0323029339464FF4BA
:10C9800080632846CDE90343059414F0B3FB304699
:10C990001A9413F07DFA08B929B0F0BD00F02AFF0F
:10C9A00029B0F0BD2049234A8B6803F00C03082B03
:10C9B0007A4410B433D00C2B14D0042B0ED01E4B61
:10C9C000D458236818491D4889681058C1F30312C8
:10C9D000825CD34023605DF8044B70471649134BCB
:10C9E0005458EFE7C868CB6800F0030102290E49EC
:10C9F0000CBF0E480E48C3F303130133B0FBF3F032
:10CA0000CB68C968C3F3062300FB03F3C1F341619C
:10CA10000948013149001458B3FBF1F3D2E7064944
:10CA2000034B5458CEE700BF001002400024F4002E
:10CA300000366E012CB8FFFF007D0200CC7D0200A5
:10CA400010B40F4A0F4B4FF0E02100247A440C61E0
:10CA50004C618C61D35809491B68A1FB03139B09E6
:10CA600003FB00F0A042B8BF033080100023013365
:10CA70009842FCD15DF8044B704700BFD34D621063
:10CA800090B7FFFF007D020008B51DF0D3FBFFF754
:10CA900045FFBDE80840FFF785BF00BF704700BFF6
:10CAA000FEE700BFFEE700BFFEE700BFFEE700BFF6
:10CAB000704700BF082018F0FFBF00BF024B034AB9
:10CAC0007B4498581AF0E2B91CB7FFFFC07E020001
:10CAD000024B034A7B4498581AF0D8B908B7FFFFB5
:10CAE000047F020008B5FFF77DFDBDE8084019F09E
:10CAF0005DBE00BF024B034A7B4498580EF0A2BBB8
:10CB0000E4B6FFFFFC7E0200024B034A7B449858C8
:10CB10000EF098BBD0B6FFFFA87E0200024B034A7E
:10CB20007B4498580EF08EBBBCB6FFFF3C7E0200E3
:10CB300008B51DF08FFBBDE8084021F0F3BD00BF34
:10CB400000B595B04C22002101A8FDF75DFC41F233
:10CB500001024FF08073684600920D9313F098F92C
:10CB600010B915B05DF804FB00F044FE15B05DF897
:10CB700004FB00BF10B5002186B0CDE904110A4ABC
:10CB8000039111200290D36C084843F00403D3644E
:10CB9000D36C03F004030093202401A9009B0194AB
:10CBA00018F0C0FD06B010BD00100240000800489B
:10CBB00030B58BB0002305ACC4E90133C4E90333BD
:10CBC000274D0593EB6C0268264943F00403EB64A0
:10CBD000EB6C03F0040301938A42019B04D0224BC7
:10CBE0009A4227D00BB030BDEB6C43F00103EB64ED
:10CBF000EB6C03F0010302931223069304232146F6
:10CC000009934FF090404FF48073029A059318F007
:10CC100089FD102315480593214618F083FDAB6D5F
:10CC200043F48003AB65AB6D03F480030393039B74
:10CC30000BB030BD4FF440721223CDE905230B48F1
:10CC400008232146099318F06DFDAB6D43F0804336
:10CC5000AB65AB6D03F080430493049B0BB030BD18
:10CC600000100240005800400078004000080048D2
:10CC70001748154910B57844144C00230122C0E927
:10CC80000041C0E90232C0E90433C0E9063303625F
:10CC900015F0B0FB70B90F480021784415F03EF94B
:10CCA00070B90D480021784415F062F928B90B4895
:10CCB000784410BD00F09EFDEDE700F09BFDF6E727
:10CCC00000F098FDEDE700BFFFECC01000580040F9
:10CCD0001A4DFF17F64CFF17EA4CFF17E04CFF17F1
:10CCE0001748154910B57844144C00230122C0E9B7
:10CCF0000041C0E90232C0E90433C0E906330362EF
:10CD000015F078FB70B90F480021784415F006F94A
:10CD100070B90D480021784415F02AF928B90B485C
:10CD2000784410BD00F066FDEDE700F063FDF6E726
:10CD300000F060FDEDE700BFFFECC01000780040A0
:10CD4000F64CFF17D24CFF17C64CFF17BC4CFF1711
:10CD500002480022202118F085BE00BF00080048CC
:10CD600002480122202118F07DBE00BF00080048C3
:10CD700010B50446FFF7B4FFA060FFF7FBFEFFF716
:10CD800077FF6060BDE81040FFF7EABF4161416294
:10CD90001421C0E90723C0E90B23C0E90D110023CA
:10CDA00001224FF48071C0E90131C36002828374B3
:10CDB000044AC3639DF8003002608361836218F007
:10CDC00089BE00BF0064004010B51C4A006888B0EE
:10CDD000002303A99042C1E90133C1E9033303935E
:10CDE00001D008B010BD03F1804303F504334FF0C8
:10CDF00090409A6D42F000729A659A6D02F000724E
:10CE00000192019ADA6C42F00102DA64DB6C03F001
:10CE100001030293022209234FF4C05407930394A1
:10CE20000492029C18F07EFC0F22114615201AF085
:10CE30007BFB15201AF0B6FB08B010BD0064004063
:10CE4000074B02689A4200D07047064A936D23F060
:10CE500000734FF4C0514FF09040936518F06ABDD5
:10CE60000064004000100240B0F1904F84B016D032
:10CE7000184B984204D0184B98421CD004B070470D
:10CE800003F1784303F50333DA6C42F00202DA640B
:10CE9000DB6C03F002030293029B04B070470F4B5C
:10CEA000DA6C42F00102DA64DB6C03F001030193F7
:10CEB000019B04B0704703F1784303F50233DA6C49
:10CEC00042F00402DA64DB6C03F004030393039B77
:10CED00004B07047000400480008004800100240F9
:10CEE00000B5002287B0CDE903220A4902920592DB
:10CEF000CB6C094804221343CB64CB6C01921340E2
:10CF000000930DEB0201009B18F00CFC07B05DF8DC
:10CF100004FB00BF001002400008004800B50022DA
:10CF200087B0CDE903220B4902920592CB6C43F006
:10CF30000103CB64CB6C03F001034022009301A9F1
:10CF40004FF09040009B019218F0ECFB07B05DF8A9
:10CF500004FB00BF00100240254B30B5DA6C42F0F4
:10CF60000102DA64DA6C8DB002F001020292029AD8
:10CF7000DA6C42F00402DA64DA6C02F00402039222
:10CF8000039ADA6C42F00102DA64DA6C02F0010210
:10CF90000492049ADA6C42F00402DA64DA6C02F069
:10CFA00004020592059A9A6D42F001029A659B6D02
:10CFB00003F00103069300240225032207A9069B20
:10CFC000019101234FF09040CDE907250B9309947F
:10CFD0000A9418F0A7FB202301990B954FF090407D
:10CFE000CDE90735CDE9094418F09CFB0DB030BD03
:10CFF0000010024010B5002288B0114601A800F0D0
:10D000006DFB0198FFF730FFBDF808100391002277
:10D010000223012403A9CDE904430692079218F0E4
:10D0200081FB08B010BD00BFF0B51F4D93B004A840
:10D030000122002100F052FBEB6CBDF81420049893
:10D0400043F00203EB64EB6C089203F0020300244C
:10D050000126039308A9039B0994CDE90B440A9682
:10D0600018F060FB0222214606A800F037FBEB6CAB
:10D070000698BDF81C7043F00403EB64EB6C019060
:10D0800003F0040302930DA9029B0F94CDE90D76E2
:10D09000CDE9104418F046FB01983246394618F0A5
:10D0A000E1FC13B0F0BD00BF0010024070B588B0C5
:10D0B0000322002101A800F011FB019E002530464B
:10D0C000FFF7D2FE284600F003FBBDF808300B4AFC
:10D0D00003930446012303A9304605930492069561
:10D0E000079518F01FFB2A460A2120461AF01CFA61
:10D0F00020461AF057FA08B070BD00BF000021109A
:10D1000008B5FFF70BFFFFF7EBFEFFF773FFFFF725
:10D110008BFFFFF7CBFFBDE80840FFF71DBF00BF47
:10D1200070B5184B026886B000249A42CDE90144DC
:10D13000CDE90344059401D006B070BD12492046E4
:10D1400000F018FB01AD02220346CDE90132294669
:10D1500005230D4805930126CDE9034418F0E2FAB2
:10D160004FF48053294608480193CDE902640494A2
:10D1700018F0D8FABDF804100348324618F072FCD3
:10D1800006B070BD003800400004004808B50268D1
:10D190000D4B9A4200D008BD0C4A0D49936D23F403
:10D1A00080439365002000F0E5FA0146084818F036
:10D1B000C1FB0849002000F0DDFABDE80840014647
:10D1C000044818F0B7BB00BF003800400010024010
:10D1D000000400480008004870B5124E86B00024D4
:10D1E00031462046CDE90244CDE90444019400F0E3
:10D1F000DBFA01AD0346012229463046CDE9013272
:10D20000CDE9034418F08EFA4FF09041204600F02B
:10D21000CBFA294603464FF09040019318F082FA6A
:10D2200006B070BD000800481D4B10B59A6D1D4C2E
:10D2300042F480429A659A6D86B002F4804201926F
:10D24000019ADA6C42F00102DA64DA6C02F001024F
:10D250000292029ADA6C42F00202DA64DA6C02F0AC
:10D2600002020392039ADA6C42F00402DA64DA6C86
:10D2700002F004020492049ADA6C42F00802DA64C2
:10D28000DB6C03F008030593059B7C44FFF7A4FFC8
:10D29000054BE05806B0BDE8104010F069BE00BF75
:10D2A0000010024052AFFFFFA07C020030B58FB0EB
:10D2B0002022002106A8FDF7A7F802AD0023C5E94A
:10D2C000013324490293886D234A40F001008865A8
:10D2D000896D01F001017A44019120495458019966
:10D2E00023614FF08042012022604FF6FF72C4E9B3
:10D2F0000133E2600323802207900B9005A92046AA
:10D30000A26105930EF09CFAE8B94FF000728023F9
:10D3100029462046029204930CF044FEB0B92368DB
:10D3200000216FF0010259621A61DA6842F00102CD
:10D33000DA601A6842F004023C2120461A6010F0BC
:10D34000C9F90FB030BD00F055FADEE700F052FA2F
:10D35000E5E700BF0010024006AFFFFFA87E020015
:10D3600030B585B00022154B1549019201ADC5E9D4
:10D3700001227B4410485C5840F2A911C4E9000125
:10D380000121C4E9022120468022A2610EF060F949
:10D3900050B92022002329462046019203930CF025
:10D3A00001FE20B905B030BD00F024FAF1E700F02D
:10D3B00021FA05B030BD00BF001400406AAEFFFF87
:10D3C000FC7E020030B585B00022154B1549019254
:10D3D00001ADC5E901227B4410485C5840F2F311CD
:10D3E000C4E900010121C4E9022120468022A26192
:10D3F0000EF02EF950B92022002329462046019232
:10D4000003930CF0CFFD20B905B030BD00F0F2F968
:10D41000F1E700F0EFF905B030BD00BF00100040AB
:10D4200006AEFFFF3C7E020010B5194B194A7B4443
:10D4300004469A58904208D0174A9A5894420CD001
:10D44000164A9B589C4210D010BD154A7A44126867
:10D45000002AF1D0BDE810401047124A7A44126801
:10D46000002AEDD0BDE8104010470F4B7B441B68ED
:10D47000002BE9D02268126812F0100F14BF4FF091
:10D48000FF300120984723686FF001021A6110BD38
:10D49000AEADFFFFFC7E02003C7E0200A87E0200D3
:10D4A000C846FF17D045FF17BC45FF1700B51D4AFA
:10D4B0001D4B7A4483B0D358984206D01B4BD358A7
:10D4C000984217D003B05DF804FB154B996D41F0FD
:10D4D000200199659B6D03F0200300933720002203
:10D4E0000621009B1AF020F8372003B05DF804EB0A
:10D4F0001AF058B80A4B996D41F0100199659B6D6F
:10D5000003F010030193362000220621019B1AF03C
:10D510000BF8362003B05DF804EB1AF043B800BFF7
:10D52000001002402AADFFFFFC7E02003C7E02009C
:10D530000F4B104A7B449A58824200D070470B4BE5
:10D5400000B5996D41F0010199659B6D83B003F0C1
:10D55000010301931C2000220721019B19F0E4FF25
:10D560001C2003B05DF804EB1AF01CB80010024058
:10D57000A8ACFFFFA87E0200024B7B441860FFF7B7
:10D58000EFBE00BF9A45FF17024B7B441860FFF7C0
:10D5900019BF00BFA244FF17024B7B441860FFF77E
:10D5A00085BE00BF8E44FF1710B54FF440314FF0D9
:10D5B000A0440022C0E9004104240121C0E9022264
:10D5C000C0E90524C0E90B228283016280F824208F
:10D5D00080F83820C26380F840201BF0E7F900B9DA
:10D5E00010BDBDE8104000F005B900BF10B50268DD
:10D5F00088B0002303A9B2F1A04FC1E90133C1E90A
:10D600000333039301D008B010BD03F1804303F549
:10D6100004330120DA6C42F40052DA64DA6C02F46A
:10D6200000520192019ADA6C42F00202DA64DB6C79
:10D63000039003F0020302930348029B0324049423
:10D6400018F070F808B010BD0004004810B5154877
:10D650008AB078440190FFF7A7FF01987F211AF064
:10D66000C9F8A8B90E4910480291002207210624E2
:10D67000CDE90822CDE90341079204237F227844B3
:10D6800002A9CDE905231BF05FFD20B90AB010BD4A
:10D6900000F0B0F8E6E700F0ADF80AB010BD00BF4A
:10D6A0000080F03EC644FF179A44FF1710B5074CA0
:10D6B0007C4420461CF026FA4FF0FF3120461BF038
:10D6C00099FA20461BF09AFB80B210BD6844FF1700
:10D6D0000238022834BF2820092070470239012966
:10D6E00005D9032A3CD8DFE802F00E141909042AF0
:10D6F00036D8DFE802F0183029231E001A4A0260EB
:10D70000082383807047194A02604FF400638380C6
:10D710007047164A0260802383807047134A026074
:10D72000402383807047104A02604FF48043838017
:10D7300070470D4A02604023838070470A4A0260A6
:10D740004FF40063838070474FF090424FF40073B2
:10D75000026083807047064A02600423838070471A
:10D7600000230360838070470008004800040048DD
:10D77000000C00480238012806D90A4881420CBF33
:10D780004FF4604000207047064B994207D003F5E4
:10D79000806348F22000994218BF002070474FF480
:10D7A00060407047000400480238012808D9B1F1F0
:10D7B000904F13D00D4881420CBFC020002070470D
:10D7C0000B4B99420FD003F58063994209D0B1F118
:10D7D000904F14BF00204FF4986070474FF4806062
:10D7E0007047042070479320704700BF000800482E
:10D7F0000004004872B6FEE7174B18487B4401222C
:10D8000010B478441A6072B64FF0E02C0023CCF8C4
:10D8100010301A46CCF814304FF0FF31CCF81830E5
:10D82000930003F1604303F561430132082AC3F812
:10D830008010C3F88011F3D1094B0A4AC3584FF046
:10D8400000611C464B682360825813600A6882F3AB
:10D8500008885DF8044B18470029FF17DAA9FFFF75
:10D860001C7D0200087D0200014B7B441868704754
:10D870009228FF17044B7B441868A0F10100B0FA0E
:10D8800080F04009704700BF8628FF17024B7B4499
:10D8900000221A60704700BF6E28FF17044B05482E
:10D8A0001B681840A0F10050B0FA80F040097047A2
:10D8B000008000080000FC2F0A48094910B5784490
:10D8C00003224FF47A7340F6FF7480E81E0014F0D0
:10D8D000F3FA00B910BDBDE81040FFF78BBF00BFE1
:10D8E00000300040CE42FF17054808B5784414F0D8
:10D8F0000FFB00B908BDBDE80840FFF77BBF00BFC4
:10D90000A042FF1708B118F0ADB8704720B1013A36
:10D9100018BF012218F0A6B8704700BF10B5144612
:10D9200018F09AF8001BB0FA80F0400910BD00BF53
:10D930002DE9F04782B004460A9D884617461E46E8
:10D940001CF09AFC4FF0100A814607E0C3F81CA0B7
:10D950001CF092FCA0EB090CAC4510D233463A46C1
:10D9600041460095204614F0B5FD23689A69D20619
:10D97000ECD40028ECD1012002B0BDE8F0870020F3
:10D9800002B0BDE8F08700BF2DE9F04782B0044641
:10D990000A9D884617461E461CF06EFC4FF0100A82
:10D9A000814607E0C3F81CA01CF066FCA0EB090C44
:10D9B000AC4510D233463A4641460095204614F015
:10D9C00061FE23689A69D206ECD40028ECD10120CC
:10D9D00002B0BDE8F087002002B0BDE8F08700BFCC
:10D9E00000B594468E467246194640685DF804EBD1
:10D9F0006346FFF79DBF00BF00B594468E46724652
:10DA0000194640685DF804EB6346FFF7BDBF00BFF1
:10DA100041607047012289B218F024B8002289B20F
:10DA200018F020B810B4019C019313460A46014631
:10DA300020465DF8044B10F063BC00BF82B02DE9B6
:10DA4000F04182B00746DDF8288009930D46404634
:10DA500019461C461646FFF7E1FF7B6800933146E6
:10DA60004FF6FF7305222846FFF7DCFF21460546E7
:10DA70004046FFF7CFFFB5FA85F0400902B0BDE898
:10DA8000F04102B0704700BF10B4054A054B7A441C
:10DA9000D4580834C0E900415DF8044B704700BF1A
:10DAA0004EA7FFFF147F020038B504460C293FD86B
:10DAB000DFE801F0073E3E3E303E3E3E223E3E3E27
:10DAC00015000068C368002223F00203C3601146FA
:10DAD0000EF022FC012384F83E30002038BD00689F
